:10800000C07700203DD5020035D6020035D60200EB
:108010000000000000000000000000000000000060
:108020000000000000000000000000009D7502003C
:108030000000000000000000A5760200ED760200BE
:1080400035D6020035D6020035CA000035D602000A
:10805000C951020035D6020035D6020035D60200DD
:1080600035D602009D5C0200B55C0200CD5C0200CA
:10807000E55C0200FD5C0200155D020079C60000AF
:108080008DC60000A1C6000035D6020035D602001C
:1080900035D6020035D6020035D6020035D60200AC
:1080A00035D6020035D6020035D6020035D602009C
:1080B0000000000010B5064C2378002B07D1054BBB
:1080C000002B02D0044800E000BF0123237010BD44
:1080D000B002002000000000E48C0300084B10B543
:1080E000002B03D00749084800E000BF0748036899
:1080F000002B00D110BD064B002BFBD09847F9E7B1
:1081000000000000B4020020E48C0300E48C0300B3
:108110000000000080B586B000AFF86008001100D4
:108120007B600B23FB18021C1A700A23FB180A1C25
:108130001A700A23FB181B78002B07D11C4B180060
:108140001C4B98470A201C4B984718E00A23FB1841
:108150001B78012B07D1194B1800164B98470A20A2
:10816000154B98470BE00A23FB181B78022B06D10E
:10817000134B18000F4B98470A200F4B98471723B3
:10818000FB183A6A12781A701723FB181B7804221E
:10819000134009D00B4B1B78002B05D0094B002254
:1081A0001A70094B01221A70C046BD4606B080BD48
:1081B0007C480300D92403000D25030090480300E8
:1081C000A4480300D1030020D203002090B589B059
:1081D00002AF78600A00FB1C1A7000233B61002389
:1081E000FB600B23FB1800221A700823FB180A22DD
:1081F0001A8000237B610DE0314B7A699200D258DE
:108200007B68110018002F4B9847031E09D07B692B
:1082100001337B612A4B7A699200D358002BEBD152
:1082200000E0C046264B7A699200D358002B02D159
:1082300001235B4240E096233B617C68224A396916
:108240002248234B00932300224CA0470300FB60ED
:10825000FB68002B03DBFA683B699A4202D30223D6
:108260005B4229E0FB683A69D31A3B61174B18005F
:10827000194B98470200154BD018FB1C1B78002B9C
:1082800001D0164B00E0164B164A3969114CA04735
:108290000300FB60FB68002B03DBFA683B699A4232
:1082A00002D303235B4207E00F4B1B7808221343E2
:1082B000DAB20D4B1A7000231800BD4607B090BD0E
:1082C0000000002049290300E84803003003002093
:1082D000F848030099270300912D0300004903008B
:1082E0000849030010490300D003002090B58BB06B
:1082F00002AFF860B9607A603B600023FB61142331
:10830000FA18F969FB681800234B984703001A0014
:1083100001235340DBB2002B0ED02049204BA72273
:108320001800204B9847204B18001E4B98470A20F6
:108330001E4B984700232BE07A69BC68F969F868FE
:108340007B6801933B6800932300194CA047031EF0
:108350001DD0BB681B7A092B03D0BB681B7A0A2B84
:1083600013D1BB685B68BB617B681B681A00FB6844
:1083700099183B681A68BB6918000E4B98473B6810
:108380001B68BA69D31800221A70012300E0002389
:108390001800BD4609B090BD317C0100344C03008B
:1083A00018490300D9240300284903000D250300C0
:1083B0008D7E01002523030090B58DB000AFF860DD
:1083C000B9607A607B68002B00D1C6E0BB68642B83
:1083D00000D9BFE0BA68F968614B1800614B984753
:1083E0005F4ABB68D31800221A700023FB62A9E021
:1083F0001C23FB180022DA605B4BFA6A9200D25809
:108400001C23FB181A601C23FB1804221A721C235D
:10841000FB181A22BA185A601023FB181422BA1833
:108420001C2179184E48514CA04703001A00012323
:108430005340DBB2002B00D080E04B4BFA6A920035
:10844000D1581A23FB181B881A00494B1800494BB6
:1084500098470A20484B98471A23FB181B88322B51
:1084600004D01A23FB181B88642B10D1434BFA6AE3
:108470005200D35A05211800414B98473F4BFA6AE6
:108480005200D35A0F2118003D4B984714E01A238D
:10849000FB181B88002B5FD1384BFA6A5200D35A65
:1084A00001211800364B9847344BFA6A5200D35AD0
:1084B0000F211800324B9847324B30229B5C01222F
:1084C0005340DBB2002B17D02E4B302201219954A0
:1084D0002C4B3122332199542A4B322200219954BA
:1084E000284B294A9A86294B1800294B9847274B35
:1084F000FA211800274B9847274B1B78012253403D
:10850000DBB2002B12D0244B01221A70224B1E4AE0
:108510005A80224B18001E4B98471B4A1F4B1100D4
:1085200018001C4B984701201D4B98471D4B1B788A
:1085300001221343DAB21B4B1A7000E0C046FB6AFB
:108540000133FB62084BFA6A9200D358002B00D02B
:108550004EE702E0C04600E0C046BD460DB090BD0B
:10856000CC0200202523030024000020ED8200001F
:1085700044490300D92403000D25030038000020DE
:1085800011D001005C570020881300009457002090
:108590008129010021280100A4570020A8570020AC
:1085A00005D50100D0030020B0B5D2B000AFF8600F
:1085B000B9607A609C23FB1800221A600433902271
:1085C00000211800B44B9847B44BA42252009446A3
:1085D000BC44634400221A6004337C22002118004A
:1085E000AD4B9847AE4BA42252009446BC44634422
:1085F00000221A807B68002B00D149E1BB68962BD2
:1086000000D944E1BA68F968A64B1800A64B984710
:10861000A44ABB68D31800221A700023A222520079
:10862000BA1813601FE198235B00FB180022DA6080
:108630009E4BA2225200BA1812689200D258982378
:108640005B00FB181A6098235B00FB180A221A7261
:1086500098235B00FB189C22BA185A601023FB1861
:108660001422BA189821490079188E48904CA047D6
:1086700003001A0001235340DBB2002B09D0A223D0
:108680005B00FB181B680133A2225200BA1813606A
:10869000E9E0864BA2225200BA1812689200D25822
:1086A000844B11001800844B98470A20834B98474D
:1086B0000023A0225200BA181360ABE098235B009D
:1086C000FB180022DA607E4BA0225200BA18126812
:1086D0009200D25898235B00FB181A60794AA023B5
:1086E0005B00FB181B68D3181A7898235B00FB18F3
:1086F0001A7298235B00FB181A68734B9A4206D1D2
:1087000098235B00FB181A22BA185A600CE09823D1
:108710005B00FB181A686D4B9A4205D198235B00E9
:10872000FB181C22BA185A601023FB181422BA181E
:108730009821490079189C2038185D4CA047030007
:108740001A0001235340DBB2002B59D198235B0060
:10875000FB181A685D4B9A4217D1594BA022520060
:10876000BA1812689200D1581C23FA18584B1800F6
:10877000514B98470A20514B98471C23FA18554BE8
:1087800011001800544B98473BE098235B00FB18FE
:108790001A684D4B9A4234D1494BA0225200BA1864
:1087A00012689200D4583E4BA42252009446BC4416
:1087B00063441A88494B0A211000984703009BB272
:1087C0001D00374BA42252009446BC4463441A88CF
:1087D000434B0A21100098470B009BB241482A00E6
:1087E0002100354CA0470A20344B98472C4BA4223B
:1087F00052009446BC4463441A883B4B9A8200E082
:10880000C046A0235B00FB181B680133A022520066
:10881000BA1813602A4BA0225200BA1812689200AC
:10882000D358002B00D049E7204BA2225200BA189F
:1088300012689200D2582C4B11001800264B984712
:10884000244B1B78002B19D0274B9A8A274BA22147
:108850004900791809684900CB5A9A420ED9244B2D
:1088600001221A700AE0114BA2225200BA181268B3
:108870009200D358002B00D0D5E600E0C0461D4B37
:108880001B7804221343DAB21A4B1A7000E0C04678
:10889000BD4652B0B0BDC0465B230300D4FEFFFF0F
:1088A000D2FEFFFF3003002025230300000000203C
:1088B000ED82000068490300D92403000D25030060
:1088C000140000202000002034480300404803002A
:1088D00078490300DC5600205D290300C50203002F
:1088E000D103030080490300C4560020C8030020C0
:1088F000D1030020D003002090B585B000AF786090
:1089000039603C23FF331A003249334B1800334B94
:108910009847334B1800314B98470A20314B984702
:108920000F23FB18FF221A707B68002B4DD07B6849
:1089300018002D4B9847031E07D02C4B1800274BCF
:1089400098470A20274B984740E04823FF331A00F6
:108950002049214B1800214B9847254B18001F4BED
:1089600098470A201F4B98470F23FC187B68180074
:10897000204B9847030023700F23FB181B785BB232
:10898000032B0ED1A5235A001249134B1800134B89
:108990009847194B1800114B98470A20114B9847DC
:1089A00014E0A6235A000B490B4B18000B4B9847B9
:1089B0000F23FB1800229A56104B11001800074B8A
:1089C00098470A20074B984700E0C046BD4605B0CF
:1089D00090BDC046484C030018490300D924030049
:1089E000A84903000D250300D53C0100B849030048
:1089F000F8490300F1530100344A0300504A0300D0
:108A000090B5ABB000AFA623FB1801221A809C23BF
:108A1000FB1818221A80F3E00023A022BA18136072
:108A20009C23FB181A883900A623FB181B88180002
:108A30007C4B98473DE07C4BA022BA18126892000C
:108A4000D2583B0011001800784B9847031E29D1DB
:108A50003B00998A764BA022BA1812685200D15274
:108A6000734BA022BA1812685200D25A714B0A21D5
:108A70001000984703009BB21C006D4BA022BA184F
:108A800012685200D25A6C4B0A21100098470B0012
:108A90009BB2390069482200694CA0470A20694B03
:108AA00098470EE0A023FB181B680133A022BA18D8
:108AB00013605D4BA022BA1812689200D358002BA5
:108AC000B9D1594BA022BA1812689200D358002B82
:108AD00011D19C23FB181A883B00002118005A4B27
:108AE00098479C23FB181A883900A623FB181B887B
:108AF0001800564B98473B00DB7D002B00D175E0FA
:108B000001235B429822BA1813609F23FB180122AD
:108B10001A704F4A3B0011001800444B9847031E3F
:108B200037D1434BA022BA1812685200D35A0D2BEA
:108B300034D03F4BA022BA18126852000D21D152F6
:108B40003B000D229A823A4BA022BA1812685200BA
:108B5000D25A384B0A211000984703009BB21C00E0
:108B6000334BA022BA1812685200D25A324B0A2153
:108B7000100098470B009BB2390036482200304C59
:108B8000A0470A202F4B98479F23FB1800221A70FA
:108B900004E09F23FB183A00927D1A703B000022EC
:108BA000DA759C23FB181A883900A623FB181B884A
:108BB0001800264B98479F23FB181A783B0011009A
:108BC0001800254B984703009822BA181360982381
:108BD000FB181B68002B1ED13A00204B1100180017
:108BE000174B98470A20174B984714E0A623FB1809
:108BF000A622B9189C22BA18098812888A181A80E5
:108C0000A623FB181A889C23FB181B88D318632BF8
:108C100000DC01E700E0C04600231800BD462BB091
:108C200090BDC04639D6010000000020492903004C
:108C3000C8030020C5020300D1030300704A0300EB
:108C4000D92403000D2503005B230300CDD50100CB
:108C500008480300844A0300CD810000B04A0300A5
:108C600090B587B002AF0023FB6000237B606423D4
:108C7000FB60324AF968324B1800324B98470300C8
:108C80007B607B68002B03DB7A68FB689A4202D327
:108C900002235B424EE00023BB6024E0284B180017
:108CA000294B98470200264BD018284BBA689200EF
:108CB000D458274AF968002300932300214CA04789
:108CC00003007B607B68002B03DB7A68FB689A42B9
:108CD00002D301235B422DE07B68FA68D31AFB6064
:108CE000BB680133BB60194BBA689200D358002BA4
:108CF000D4D1134B1800144B984703005A1E104B45
:108D0000D318144AF96818000E4B984703007B608B
:108D10007B68002B03DB7A68FB689A4202D302234C
:108D20005B4207E00C4B1B7801221343DAB20A4B7B
:108D30001A7000231800BD4605B090BDC84A030054
:108D4000CC02002099270300912D0300240000206D
:108D5000CC4A0300D84A0300D003002090B589B064
:108D600002AF78600A00FB1C1A700023FB6000232E
:108D7000BB601723FB1800221A7000233B611AE026
:108D8000484B3A699200D458464B3A699200D358FE
:108D90001800454B984702007B6821001800434BA0
:108DA0009847031E04D11723FB1801221A7008E00C
:108DB0003B6901333B613B4B3A699200D358002B2E
:108DC000DED11723FB181B7801225340DBB2002BA6
:108DD0000ED0FB1C1B78002B07D1FB1C1B78322B01
:108DE00003D1FB1C1B78642B02D001235B4254E0AF
:108DF0006423FB602E4AF9682E4B18002E4B9847CF
:108E00000300BB60BB68002B03DBBA68FB689A42B7
:108E100002D302235B4240E0264B1800224B9847C6
:108E20000200244BD018FB1C1B787C68234AF9688D
:108E300000932300204CA0470300BB60BB68002BBD
:108E400003DBBA68FB689A4202D302235B4224E048
:108E5000BB68FA68D31AFB60164B1800124B984790
:108E600003005A1E134BD318154AF9681800124B09
:108E700098470300BB60BB68002B03DBBA68FB6844
:108E80009A4202D302235B4207E00E4B1B78022278
:108E90001343DAB20B4B1A7000231800BD4607B01B
:108EA00090BDC04624000020912D03009F2D03009B
:108EB000C84A0300CC02002099270300CC4A0300D3
:108EC000D84A0300D0030020B0B5F04CA54404AF4D
:108ED000EF4BFB18FF221A70FA23D222D200BA18E5
:108EE00013600023EB4ABA181360EB4BD322D20075
:108EF0009446BC446344E94A13CA13C313CA13C358
:108F000012681A60E44BD322D2009446BC446344F6
:108F1000E34A1A60E04BD322D2009446BC44634437
:108F2000E04A9A80DC4BD322D2009446BC4463448E
:108F3000DD4ADA60D84BD322D2009446BC44634465
:108F4000D94A1A61D44BD322D2009446BC4463441C
:108F5000D54A9A60D04BD322D2009446BC44634495
:108F600000221A75CC4BD322D2009446BC446344F1
:108F7000CE4A9A61C64BFC183423FA18B8235B001A
:108F8000FB1811001800CA4B984703002370C04B10
:108F9000FB181B785BB2002B17D0ED235A00C54994
:108FA000C54B1800C54B9847B94BFB1800229A5681
:108FB000C34B11001800C14B98470A20C14B98477A
:108FC000B34BFB181B785BB2CFE26023FB18180091
:108FD000BD4B9847BD4BD322D2009446BC4463445A
:108FE00000221A73BA495423FB180A221800B94BFD
:108FF0009847B94A5423FB1811001800B74B9847FB
:109000000300A44ABA1813606023FB180633A14A70
:10901000BA18106807221900AE4B9847B04BD322FC
:10902000D2009446BC446344AE4A13CA13C31268C8
:109030001A60AB4BD322D2009446BC446344AA4A84
:109040001A60A74BD322D2009446BC4463445422F6
:10905000BA185A605423FB181800A44B9847030011
:109060009AB29F4BD321C9008C46BC4463441A81F9
:10907000874BFC182423FA18B8235B00FB18110057
:1090800018009B4B984703002370814BFB181B78FB
:109090005BB2002B18D0EE23FF331A008549864BB4
:1090A0001800864B98477A4BFB1800229A56844B3F
:1090B00011001800814B98470A20824B9847744B47
:1090C000FB181B785BB250E28A48774B0093012370
:1090D00001220221794CA0470A207A4B98476C4B19
:1090E000FC18B8235B00FB1801211800824B98473D
:1090F00003002370664BFB181B785BB2002B17D064
:10910000FD235A006B496C4B18006C4B9847604B21
:10911000FB1800229A56794B11001800674B9847AC
:109120000A20684B98475A4BFB181B785BB21CE22D
:10913000734BD322D2009446BC446344714ADA6034
:109140006F4BD322D2009446BC4463446E4A5A60AB
:109150006B4BD322D2009446BC4463446B4A1A60E2
:10916000674BD322D2009446BC4463440A221A724D
:10917000674BD322D2009446BC446344654ADA600C
:10918000634BD322D2009446BC446344624A5A6083
:109190005F4BD322D2009446BC4463445F4A1A60BA
:1091A0005B4BD322D2009446BC4463440A221A7219
:1091B0005B4B98475B4B9847354BFC181423FA18C8
:1091C000B8235B00FB1811001800574B98470300A9
:1091D00023702F4BFB181B785BB2002B11D0534A26
:1091E0003449354B1800354B9847294BFB18002262
:1091F0009A564F4B11001800304B98470A20314BBC
:109200009847234BFC183A1DB8235B00FB1811004C
:109210001800454B9847030023701D4BFB181B7823
:109220005BB2002B00D143E185239A002149224BF8
:109230001800224B9847164BFB1800229A563C4BBD
:10924000110018001D4B98470A201E4B98472FE12C
:109250000F4BFC18B8235B00FB18C8211800354BD6
:109260009847030023700A4BFB181B785BB2042B52
:1092700066D1314B984703003B67FA239A0070236D
:10928000FB18110018002D4B984711E158F9FFFF0A
:10929000970600008C0600009CF9FFFF205B03008E
:1092A000DC4A0300B32200000C4B0300F9880000E5
:1092B000F96E0100644C0300104B0300D924030035
:1092C000204B03000D250300B5E80100C8F9FFFF9E
:1092D0003C4B030085F80100484B0300A1F9010055
:1092E0008CF9FFFF3C5B0300504B0300912D030002
:1092F000D96F0100684B030055720100884B0300D1
:109300007CF9FFFFB9830000CC020020B44B0300BE
:109310006CF9FFFFA985000030030020C04B03005B
:10932000018A0000618C00002D7101000F02000015
:10933000CC4B030081710100558802007983020043
:109340008D4B1B78002B00D1AEE08C4BFC18D22348
:10935000DB00FB181A687423FB1811001800884BF7
:10936000984703002370854BFB181B785BB2002BDA
:1093700000D099E0804B1A78824BD321C9008C46EB
:10938000BC4463441A707C4B1B781A0002231340C0
:1093900016D0794B1B7802229343DAB2764B1A70BF
:1093A000764BFC181423FB18D222D200BA1811688D
:1093B0007422B8180122744DA8470300237044E0BA
:1093C0006D4B1B781A000123134016D06A4B1B7893
:1093D00001229343DAB2684B1A70684BFC181423CD
:1093E000FB18D222D200BA1811687422B8180122D0
:1093F000664DA8470300237027E05F4B1B781A00D7
:109400000423134005D15C4B1B781A00082313403A
:109410001BD0594B1B7804229343DAB2564B1A7077
:10942000554B1B7808229343DAB2534B1A70534BB7
:10943000FC183B1DD222D200BA1811687422B81849
:109440000122524DA847030023704C4BFB181B7898
:109450005BB2002B28D1494BFC18D223DB00FB1850
:109460001A687423FB1811001800494B9847030031
:109470002370424BFB181B785BB2002B14D13F4B7F
:10948000FC18444D7423FA184349B8235B00F818BC
:1094900001230293042301935323FB1800932B0011
:1094A0003E4DA847030023703D4B1B78002B15D180
:1094B000324BFB181B785BB2042B00D1C8E62F4B54
:1094C000FB181B785BB2032B00D1C1E62B4BFB18BA
:1094D0001B785BB2002B00D1BAE600E0C046274BF8
:1094E000FB181B785BB2002B11D02E4A2E492F4B54
:1094F00018002F4B9847214BFB1800229A562D4BF2
:10950000110018002A4B98470A202B4B98472B4BE9
:109510001800274B98470A20274B9847174BFC18F1
:10952000B8235B00FB181800254B984703002370F5
:10953000124BFB181B785BB2002B12D092239A00BF
:1095400019491A4B18001A4B98470C4BFB1800226C
:109550009A561C4B11001800154B98470A20164BC1
:109560009847064BFB181B785BB21800BD46D32307
:10957000DB009D44B0BDC046D0030020970600002C
:1095800045740100BBF9FFFFA9740100A976010031
:10959000E978010015810000504B0300D9710100EA
:1095A000D203002042020000644C0300104B030071
:1095B000D9240300EC4B03000D250300104C0300DD
:1095C000B9710100204C030080B500AF0C4B1B7833
:1095D000002B11D00A4B00221A700A4A0A4B1100C4
:1095E00018000A4B9847031E04D1094B1800094B79
:1095F000984701E0084B984700231800BD4680BDFE
:10960000D203002014480300C45600204929030057
:10961000DC560020A5EC0100E5A1020080B584B075
:1096200000AF0200FB1D1A700F23FB18FA1D127801
:10963000D2091A700E23FB18FA1D127852091A70FB
:109640000D4BBB600F23FB181B78002B0FD10F2392
:10965000FB181B789B0010229446BC446344083BD3
:109660001A680E23FB181B78DB01D31800E00023D7
:109670001800BD4604B080BD0044004180B582B0F2
:1096800000AF0200FB1D1A70FB1D1B781800034B76
:10969000984703001800BD4602B080BD1D9600002B
:1096A00080B584B000AF0200FB1D1A70BB1D0A1C00
:1096B0001A70FB1D1B7818000D4B98470300FB60C8
:1096C000FB1D1B781F22134001229A401300BB6030
:1096D000BB1D1B78002B03D0FB68BA689A6102E0BF
:1096E000FB68BA685A61C046BD4604B080BDC0463A
:1096F0007D96000080B584B000AF0200FB1D1A709B
:10970000FB1D1B781800094B98470300FB60FB1DED
:109710001B781F22134001229A401300BB60FB6894
:10972000BA68DA61C046BD4604B080BD7D960000CF
:1097300090B58FB000AF0200FB1D1A703B1D0A1CD4
:109740001A8001235B427B632023FB1802221A80CC
:109750003B1D1B881B021AB23B1D1B881B0A9BB2B8
:109760001BB213431BB29AB22023FB185A8020234A
:10977000FB1800225A602023F918FB1D1B785BB2EE
:1097800010221800144B9847031E02D001235B429D
:109790001EE0124B18680823F91801236422104CAC
:1097A000A0470300012B12D10823FB181B78012BC3
:1097B0000DD10823FB1802333B63084B1B680021C3
:1097C0001800084B98473B6B1B785BB27B637B6B45
:1097D0001800BD460FB090BDE9430200C41400203C
:1097E000317D02001D78020090B58BB000AF020001
:1097F000FB1D1A7001235B427B62FB1D1B785BB271
:1098000000211800144B9847031E02D001235B422D
:109810001EE0124B18680823F91801236422104C2B
:10982000A0470300012B12D10823FB181B78022B41
:109830000DD10823FB1802333B62084B1B68002143
:109840001800084B98473B6A1B785BB27B627B6AC7
:109850001800BD460BB090BDD9440200C4140020CE
:10986000317D02001D78020090B58BB000AF020080
:10987000FB1D1A7001235B427B62FB1D1B785BB2F0
:10988000002200211800154B9847031E02D0012327
:109890005B421EE0124B18680823F918012364226A
:1098A000104CA0470300012B12D10823FB181B7892
:1098B000042B0DD10823FB1802333B62084B1B68B5
:1098C00000211800084B98473B6A1B785BB27B620B
:1098D0007B6A1800BD460BB090BDC0468D450200A6
:1098E000C4140020317D02001D78020090B58BB0B9
:1098F00000AF39601100FB1D021C1A703B1D0A1CD1
:109900001A802623FB1800221A803B68002B0AD0FD
:109910003B1D1A883968FB1D002018560023274C70
:10992000A047031E02D001235B4242E0244B18688B
:109930000823F91801230A22224CA0470300012B17
:1099400033D10823FB1802333B620823FB181B7832
:10995000062B2AD13B6A1B785BB2FA1D127852B2F1
:109960009A4222D1164B1B6800211800164B9847CB
:109970002623FB183A6A52881A80FB1D1B785BB2BB
:1099800001229A4013005BB2DB435BB20F4A1278AC
:1099900052B213405BB2DAB20C4B1A700C4B18681F
:1099A0000023002200210B4CA0472623FB18002295
:1099B0009B5E1800BD460BB090BDC046A149020099
:1099C000C4140020317D02001D780200D51400204F
:1099D000D0140020617A020080B584B000AFF86036
:1099E000B9607A60BB681B78032B1FD17B681800B5
:1099F000114B984703001900BB689A68BB685B6805
:109A0000D31A994212D1BB685B681A00FB68981898
:109A1000BB689A68BB685B68D31A1A007B68190038
:109A2000064B9847031E01D1002301E001235B424E
:109A30001800BD4604B080BD912D03009F2D03008A
:109A400090B585B002AF78601B4B18001B4B984750
:109A50007B6818001A4B984704001A4A7968164820
:109A60000A23009313002200174CA0470200174B53
:109A70001A60164B1B68002B08DA144B1A6814493D
:109A8000144B1800144B9847002310E00F4B1B6831
:109A9000002B03DD0B4B1B78012B07D00C4A0F4B1F
:109AA000110018000C4B9847002300E00123180018
:109AB000BD4603B090BDC046D4030020D9270100A5
:109AC000912D0300E00300208D240100800400207C
:109AD000EC4C0300704C0300D9240300904C0300AD
:109AE00090B58BB000AFF860B9607A6001237B62FB
:109AF0003AE07B6A1A01214BD118BA68FB6818005A
:109B00001F4B9847031E2CD17B6A01331022BA18D1
:109B10001A491B01CB1813CB13C21B681360102307
:109B2000FB189B68D9B21023FB185B68DAB22323B9
:109B3000FB188A1A1A701023FB185B681A00FB685E
:109B400099182323FB181A787B6818000D4B984747
:109B50002323FB181B787A68D31800221A7001237C
:109B600008E07B6A01337B62074B1B687A6A9A4282
:109B7000BFDB00231800BD460BB090BDE003002002
:109B8000D9990000C12D03008004002090B5F9B0E0
:109B900002AF0023EA225200BA181360D023FF3329
:109BA000FB18FF221A70D423FF33FB18FF221A7010
:109BB000E7235B00FB18FF221A70E8235B00FB1809
:109BC00000221A80DA4B98470300022B08D1D94BA8
:109BD0001800D94B98470300EA225200BA181360C4
:109BE000EA235B00FB181B68002B02DA01235B42AF
:109BF00016E2D24B1800D24B9847031E02DA02231A
:109C00005B420DE2D023FF33FC1800220121022029
:109C1000CC4B984703002370D023FF33FB181B78ED
:109C20007F2B02D903235B42FAE1D023FF33FB18D9
:109C30001B785BB250211800C34B9847031E02DA11
:109C400004235B42ECE1D023FF33FB181B785BB2AB
:109C50001800BE4B9847031E02DA05235B42DFE182
:109C6000DE235B00FB181800B94B9847FA235A0013
:109C7000DE235B00FB1811001800B64B9847A2E0EA
:109C8000DE235B00FB181800B34B9847031E1AD065
:109C90002B20B24B9847DE235B00FB181800AC4B1F
:109CA0009847FA235A00DE235B00FB1811001800C6
:109CB000A84B9847E8235B00FB181A88E8235B0051
:109CC000FB1801321A80D423FF33FB181B787F2B3B
:109CD00013D9D023FF33FB181B785BB21800A04BBD
:109CE00098470200D423FF33FB181A70D423FF33A4
:109CF000FB181B787F2B00D965E0E023F918D423EB
:109D0000FF33FB181B785BB2C8221800954B9847AD
:109D10000300EA225200BA181360EA235B00FB1822
:109D20001B68002B0DDAD423FF33FB181B785BB2C2
:109D300018008D4B9847D423FF33FB18FF221A706D
:109D400041E0EA235B00FB181B68002B3BDDEA23A4
:109D50005B00FB181B68C72B35DCE023FA18EA23ED
:109D60005B00FB181B68D31800221A70E023FB1855
:109D700018007E4B984703001A0001235340DBB2C2
:109D8000002B00D01FE0BC23FA187949E023FB1810
:109D90001800784B984703001A0001235340DBB2A8
:109DA000002B00D00FE07823FA187349E023FB184A
:109DB0001800704B984703001A0001235340DBB290
:109DC000002B09D0C046E8235B00FB181B886B4AB8
:109DD000934200D854E700E0C04601212B20684B95
:109DE0009847D023FF33FB181B785BB218005E4BFB
:109DF0009847644B98470A20634B9847E8235B00D9
:109E0000FB181B885D4A934228D9604BEC22520014
:109E1000BA18D2185E4B1000190021231A005D4BAE
:109E200098475D4BEC225200BA18D118584B2122AA
:109E300008009B1841221900564B9847544B622248
:109E4000995C564B7822BA18BC203818544CA0475D
:109E50000300EA225200BA181360DDE04F4B78226B
:109E6000BA18BC21781802214D4CA0470300EA2201
:109E70005200BA181360EA235B00FB181B68002B22
:109E800000D0C9E0474BEC2252009446BC446344E6
:109E900000221A600433602200211800424B9847C8
:109EA0003B4B632219008C20404B9847E7235B0013
:109EB000FC18002202210220224B98470300237045
:109EC000E7235B00FB181B787F2B02D906235B423C
:109ED000A6E0374BEC2252009446BC446344022275
:109EE0001A80334BEC2252009446BC446344314AFE
:109EF0005A802F4BEC2252009446BC44634401220A
:109F000052425A603B1D2C4A13CA13C313CA13C3CF
:109F100003CA03C31F22CE23FF33FB181A70CE23BC
:109F2000FF33FB181B78632B48D907235B4277E08C
:109F300089E901001027000099E60100B04C0300F8
:109F40009DE901009142020031970000E99700006D
:109F50008129010021280100FD270100F59600005C
:109F600069980000ED980000214B0200419A000022
:109F7000B84C0300E19A0000C04C0300AF0400009D
:109F8000A1960000EDEA01004D840200E4FEFFFF0F
:109F9000BC53002025230300A0FEFFFF60EA000061
:109FA00005E501002CFEFFFF5B230300CDD501007A
:109FB00090FEFFFF1A0A0000CC4C0300D6235B0082
:109FC000FB181800184B9847D6235B00FB181E217E
:109FD0001800164B984712E0CE23FF33FB181B786E
:109FE0009AB2391DE7235B00FB1800201856102396
:109FF00001936823FB18009300230D4CA047D62340
:10A000005B00FB1818000B4B984703001A00012354
:10A010005340DBB2002BDFD1EA235B00FB181B6847
:10A020001800BD4677B090BD81290100312901009B
:10A030005D480200FD27010080B584B000AF02003A
:10A04000FB1D1A700F23FB18FA1D1278D2091A7023
:10A050000E23FB18FA1D127852091A700D4BBB60C3
:10A060000F23FB181B78002B0FD10F23FB181B7835
:10A070009B0010229446BC446344083B1A680E239C
:10A08000FB181B78DB01D31800E000231800BD4645
:10A0900004B080BD0044004180B582B000AF020032
:10A0A000FB1D1A70FB1D1B781800034B984703001B
:10A0B0001800BD4602B080BD39A0000080B584B054
:10A0C00000AF0200FB1D1A70BB1D0A1C1A70FB1D9D
:10A0D0001B7818000D4B98470300FB60FB1D1B7895
:10A0E0001F22134001229A401300BB60BB1D1B7846
:10A0F000002B03D0FB68BA689A6102E0FB68BA687B
:10A100005A61C046BD4604B080BDC04699A000005B
:10A1100080B500AF024B9847C046BD4680BDC046E3
:10A1200089C2020080B500AF024B9847C046BD46C9
:10A1300080BDC046DDC2020080B584B000AF78604B
:10A140000D4B98477B681B79DBB2002B04D00F23A3
:10A15000FB1805221A7006E07B6801221A710F2392
:10A16000FB1800221A70054B98470F23FB181B7829
:10A170001800BD4604B080BD11A1000025A100005B
:10A1800080B582B000AF78607B6800221A71C0464B
:10A19000BD4602B080BD80B584B000AF78607B68FA
:10A1A0001B68FB60FB681B7EDBB21A0001231340B7
:10A1B0005A1E9341DBB21800BD4604B080BD80B585
:10A1C00084B000AF78607B681B68FB60FB681B7E17
:10A1D000DBB21A00042313405A1E9341DBB218006D
:10A1E000BD4604B080BD000080B584B000AF78608B
:10A1F0000A00BB1C1A807B681B68FB607B68180028
:10A200000A4B984703001A0001235340DBB2002B8E
:10A2100001D0052306E0BB1C1B88DB05DA0DFB68BB
:10A220009A6200231800BD4604B080BD97A10000CB
:10A2300080B584B000AF786039607B681B68BB6014
:10A240007B6818001B4B984703001A0001235340FA
:10A25000DBB2002B01D0102327E00F23FB180022D4
:10A260001A70BB685B8B9BB21A000423134006D0A4
:10A270000F23FB181E221A70BB6804225A837B68C6
:10A280009B79012B08D1BB689B6A9BB2DB05DB0D78
:10A290009AB23B681A8005E0BB689B6ADBB29AB24F
:10A2A0003B681A800F23FB181B781800BD4604B0CA
:10A2B00080BDC046BFA1000080B582B000AF0200E3
:10A2C000FB1D1A70FB1D1B78002B01D1034B00E016
:10A2D00000231800BD4602B080BDC0468EBF0000FE
:10A2E00080B582B000AF0200FB1D1A70FB1D1B7809
:10A2F000002B02D180231B0400E000231800BD4680
:10A3000002B080BD80B582B000AF78607B685B79B9
:10A3100000211800024B9847C046BD4602B080BDE0
:10A32000BDA0000080B582B000AF78607B685B792B
:10A3300001211800024B9847C046BD4602B080BDBF
:10A34000BDA0000084B0B0B584B000AF7860042038
:10A350002024A446BC44604401604260836004231E
:10A3600020229446BC4463441A780823FB181A70D0
:10A37000042320229446BC4463445B78012B1FD9FC
:10A38000042320229446BC4463445B68DAB2082369
:10A39000FB18DA70042320229446BC4463445B68B3
:10A3A0001B0ADAB20823FB189A7004232022944671
:10A3B000BC4463445B681B0CDAB20823FB185A7078
:10A3C0007B6818001D4B98477B681868042320227F
:10A3D0009446BC4463445B789AB20F23FC1808236C
:10A3E000FB181900164B9847030023700423202202
:10A3F0009446BC4463449B89002B14D07B68186846
:10A40000042320229446BC446344996804232022F8
:10A410009446BC4463449A890F23FC180023094DD9
:10A42000A847030023707B681800074B9847C04675
:10A43000BD4604B0B0BC08BC04B0184705A300007A
:10A44000CD650200A963020025A3000084B090B589
:10A4500085B000AF786004202024A446BC4460444A
:10A46000016042608360042320229446BC4463441C
:10A470001A780823FB181A70042320229446BC443F
:10A4800063445B78012B1FD9042320229446BC44EB
:10A4900063445B68DAB20823FB18DA7004232022D5
:10A4A0009446BC4463445B681B0ADAB20823FB1879
:10A4B0009A70042320229446BC4463445B681B0CBE
:10A4C000DAB20823FB185A707B6818001D4B9847B6
:10A4D0007B681868042320229446BC4463445B785C
:10A4E0009AB20F23FC180823FB181900164B984743
:10A4F00003002370042320229446BC4463449B89B8
:10A50000002B14D07B681868042320229446BC4496
:10A5100063449968042320229446BC4463449B8985
:10A520000F22BC181A00084B9847030023707B6861
:10A530001800064B9847C046BD4605B090BC08BC05
:10A5400004B0184705A30000CD65020025A3000054
:10A5500090B585B000AF78600C23FB1800221A80FC
:10A56000C0467B681B681800374B984703001A00E9
:10A5700001235340DBB2002BF3D17B681800334B2F
:10A5800098477B681B680F22BC1805211800304BC8
:10A59000984703002370C0467B681B6818002D4B4A
:10A5A000984703001A0001235340DBB2002BF3D17C
:10A5B0007B681B680F22BC180C22BA181100180007
:10A5C000254B984703002370C0467B681B68180022
:10A5D0001D4B984703001A0001235340DBB2002BA8
:10A5E000F3D17B681B680F22BC1800211800184BA0
:10A5F000984703002370C0467B681B681800154B02
:10A60000984703001A0001235340DBB2002BF3D11B
:10A610007B681B680F22BC180C22BA1811001800A6
:10A620000D4B9847030023700C23FB181B881A005E
:10A6300001231340C8D17B681800084B98470023BA
:10A640001800BD4605B090BD97A1000005A300000D
:10A65000E9A10000BFA1000031A2000025A3000075
:10A6600090B585B000AF78603960C0467B681B68E4
:10A6700018001C4B984703001A0001235340DBB21B
:10A68000002BF3D17B681800174B98477B681B6839
:10A690000F22BC1805211800144B984703002370A3
:10A6A000C0467B681B681800114B984703001A00CE
:10A6B00001235340DBB2002BF3D17B681B680F22D0
:10A6C000BC183A68110018000A4B98470300237021
:10A6D0007B681800084B984700231800BD4605B05A
:10A6E00090BDC04697A1000005A30000E9A10000AD
:10A6F000BFA1000031A2000025A3000090B589B0E1
:10A7000002AF78600823FB1806221A700823FB1892
:10A7100001225A700823FB1800229A810823FB1893
:10A7200000225A600823FB1800229A600823FB18B5
:10A7300078686A46D968116019685A689B68034C42
:10A74000A047C046BD4607B090BDC0464DA400001E
:10A7500090B589B002AF78600823FB1804221A7004
:10A760000823FB1801225A700823FB1800229A8143
:10A770000823FB1800225A600823FB1800229A6065
:10A780000823FB1878686A46D968116019685A6806
:10A790009B68034CA047C046BD4607B090BDC0466D
:10A7A0004DA4000090B58BB002AF78600023BB6071
:10A7B0007B681B681F22BC181800214B98470300B8
:10A7C00023701F23FB181B78052B03D11F23FB18B5
:10A7D0001B7830E00C23FB1890221A700C23FB1816
:10A7E00004225A700C23FB1801225A600C23FB1818
:10A7F0000822BA189A600C23FB1802229A810C23B3
:10A80000FB1878686A46D968116019685A689B68AD
:10A810000C4CA0477B681B6818000B4B98477B6863
:10A820001B791800094B98470200BB689A4201D176
:10A83000002300E014231800BD4609B090BDC046B7
:10A8400039A1000045A3000081A10000B9A20000C9
:10A8500090B58DB002AFF860B9607A601A00BB1C89
:10A860001A80BB1C1A88BB68D418FB681B791800B7
:10A87000214B984703009C4201D9172337E0FB681E
:10A880001B682722BC1818001C4B98470300237034
:10A890002723FB181B78052B03D12723FB181B78D4
:10A8A00025E01423FB1803221A701423FB1804223A
:10A8B0005A701423FB18BA685A601423FB187A687C
:10A8C0009A601423FB18BA1C12889A811423FB186F
:10A8D000F8686A46D968116019685A689B68084C1C
:10A8E000A047FB681B681800064B98470023180018
:10A8F000BD460BB090BDC046E1A2000039A10000EA
:10A9000045A3000081A1000090B58DB002AFF860B2
:10A91000B9607A601A00BB1C1A80BB1C1A88BB681D
:10A92000D418FB681B791800994B984703009C4288
:10A9300001D9172328E1FB681B682722BC181800DF
:10A94000944B9847030023702723FB181B78052B93
:10A9500003D12723FB181B7816E12423FB18BA1C0C
:10A9600012881A801423FB1800229A812423FB18D2
:10A970001B88012B03D0BB680122134034D0FB6835
:10A980001800854B98471423FB1802221A701423D1
:10A99000FB1804225A701423FB18BA685A60142357
:10A9A000FB187A689A601423FB1801229A811423F9
:10A9B000FB18F8686A46D968116019685A689B687C
:10A9C000764CA0472723FC18FB681800744B984767
:10A9D000030023701423FB189A892423FB182421D5
:10A9E000791809888A1A1A802423FB181B88012BDE
:10A9F00072D9FB681800684B98471423FB18AD22E6
:10AA00001A701423FB1804225A701423FB189B8914
:10AA10001A00BB68D2181423FB185A601423FB18C1
:10AA20009B891A007B689A181423FB189A601423D8
:10AA3000FB1802229A811423FB18F8686A46D96829
:10AA4000116019685A689B68544CA0472723FC186A
:10AA5000FB681800524B9847030023701423FB181F
:10AA60009A892423FB182421791809888A1A1A80C4
:10AA700032E01423FB18AD221A701423FB180122B4
:10AA80005A701423FB189B681422BA1892899A18DA
:10AA90001423FB189A601423FB1802229A811423B2
:10AAA000FB18F8686A46D968116019685A689B688B
:10AAB0003A4CA0472723FC18FB681800384B9847EE
:10AAC000030023701423FB189A892423FB182421E4
:10AAD000791809888A1A1A802423FB181B88012BED
:10AAE00004D92723FB181B78002BC2D0FB68180061
:10AAF0002C4B98472423FB181B88002B3CD0FB6869
:10AB00001800254B98471423FB1802221A701423AF
:10AB1000FB1804225A70BB1C1A88BB68D3185A1E33
:10AB20001423FB185A60BB1C1B88013B7A68D2189F
:10AB30001423FB189A601423FB1801229A81142312
:10AB4000FB18F8686A46D968116019685A689B68EA
:10AB5000124CA0472723FC18FB681800104B98479D
:10AB6000030023701423FB189A892423FB18242143
:10AB7000791809888A1A1A80FB681B6818000A4B22
:10AB800098472723FB181B781800BD460BB090BDD3
:10AB9000E1A2000039A10000FDA600004DA40000C4
:10ABA00051A5000051A7000081A1000090B58DB013
:10ABB00002AFF860B960FB1D1A70FB681B791800C2
:10ABC000334B98470200BB689A4201D817235BE0D9
:10ABD000FB681B682722BC1818002E4B98470300FF
:10ABE00023702723FB181B78052B03D12723FB1881
:10ABF0001B7849E0FB681800274B9847FB1D1B7822
:10AC0000012B08D0022B0BD0002B0ED11423FB18E4
:10AC100020221A700DE01423FB1852221A7008E04B
:10AC20001423FB18D8221A7003E01423FB18002207
:10AC30001A701423FB1804225A701423FB18BA68E4
:10AC40005A601423FB1800229A811423FB18002257
:10AC50009A601423FB18F8686A46D968116019686D
:10AC60005A689B680D4CA0472723FC18FB68180006
:10AC70000B4B984703002370FB681B681800094BB7
:10AC800098472723FB181B781800BD460BB090BDD2
:10AC9000E1A2000039A10000FDA600004DA40000C3
:10ACA00051A5000081A1000090B58DB002AFF86001
:10ACB000B960FB1D1A701323FB1800221A701223AF
:10ACC000FB1800221A70FB681B791800594B984733
:10ACD0000200BB689A4201D81723A7E0FB681B68F3
:10ACE0002722BC181800544B9847030023702723D1
:10ACF000FB181B78052B03D12723FB181B7895E045
:10AD00002723FC181223FA18FB68110018004B4B7C
:10AD10009847030023702723FB181B78002B03D0D0
:10AD20002723FB181B7881E0FB681800444B9847E9
:10AD3000BB68444A934208D9BB68434A934204D84B
:10AD40001323FB1804221A702DE0BB683F4A93427C
:10AD500009D9BA68F0231B039A4204D81323FB18BD
:10AD600008221A701FE0BB68394A934209D9BA68B1
:10AD7000E0231B039A4204D81323FB180C221A70F9
:10AD800011E0BB68334A934209D9BA68C0231B0358
:10AD90009A4204D81323FB1810221A7003E01323DD
:10ADA000FB181C221A70FB1D1B78002B08D01223E5
:10ADB000FB181A781323FB181B781343DBB20CE043
:10ADC0001323FB181B785BB2DB435BB21222BA1869
:10ADD000127852B213405BB2DBB21322BA1813706E
:10ADE0001423FB1801221A701423FB1801225A7035
:10ADF0001423FB1801229A811423FB181322BA187A
:10AE00009A601423FB1800225A601423FB18F86878
:10AE10006A46D968116019685A689B680E4CA04749
:10AE2000FB681B6818000D4B984700231800BD46AF
:10AE30000BB090BDE1A2000039A1000061A60000A6
:10AE4000FDA60000FFFF0E00FFFF0F00FFFF0D003B
:10AE5000FFFF0B00FFFF07004DA4000081A10000D1
:10AE600080B582B000AF78607B68002B0CD0084BB7
:10AE70007A685A60064B00229A60C046044B1A68F2
:10AE800080235B021340F9D0C046BD4602B080BDAE
:10AE900010E000E080B500AF00200F4B98470200A3
:10AEA0000E4B1A600D4B18680D4BFA229100984713
:10AEB00003001A00094B1A60084B1868084BFA2265
:10AEC0009100984703001A00064B1A60064B0522B2
:10AED0001A60C046BD4680BDA9D0020040000020D7
:10AEE000C50203004400002010E000E080B582B0FD
:10AEF00000AF786004E0074B1B681800064B9847CA
:10AF00007B685A1E7A60002BF5D1C046BD4602B060
:10AF100080BDC0464000002061AE000080B584B016
:10AF200000AF0200FB1D1A70FB1D1B78002B08D11F
:10AF3000FB1D1A78084B5201D358984703001A009A
:10AF400000E001220F23FB181A700F23FB181B7857
:10AF50001800BD4604B080BD1C4D030080B584B010
:10AF600000AF02003960FB1D1A70FB1D1B78002B1F
:10AF70000CD1FB1D1B780B4A5B01D31804331B68F3
:10AF80003A681000984703001A0000E001220F23DE
:10AF9000FB181A700F23FB181B781800BD4604B06D
:10AFA00080BDC0461C4D030080B584B000AF0200D8
:10AFB000FB1D1A70FB1D1B785A425341DAB20F2356
:10AFC000FB181A700F23FB181B781800BD4604B03D
:10AFD00080BD000080B584B000AF0200FB1D1A7078
:10AFE000FB1D1B78002B09D1FB1D1B780A4A5B0156
:10AFF000D3180C331B689847031E01D0012200E0D0
:10B0000000220F23FB181A700F23FB181B7818005F
:10B01000BD4604B080BDC0461C4D030080B586B05F
:10B0200000AFB9607A600F23FB18021C1A700F235F
:10B03000FB181B78002B0ED10F23FB181B780B4A33
:10B040005B01D31814331B687968BA6810009847FD
:10B0500003001A0000E001221723FB181A701723BF
:10B06000FB181B781800BD4606B080BD1C4D0300C0
:10B0700080B586B000AFB9607A600F23FB18021C60
:10B080001A700F23FB181B78002B0ED10F23FB180F
:10B090001B780B4A5B01D31818331B687968BA68B0
:10B0A0001000984703001A0000E001221723FB1844
:10B0B0001A701723FB181B781800BD4606B080BD18
:10B0C0001C4D030080B582B000AF074B7B607B68EE
:10B0D0001B7DDBB21A00012313405A1E9341DBB2E1
:10B0E0001800BD4602B080BD0040004180B582B06E
:10B0F00000AF02003960FB1D1A70FB1D1B78012B8D
:10B100000AD0022B0FD0002B14D10E4B0D4A91699F
:10B110003A680A439A610FE00A4B0A4AD1693A68D1
:10B120000A43DA6108E0074B064A116A3A680A43A3
:10B130001A6201E0172300E000231800BD4602B0A8
:10B1400080BDC0460004004080B584B000AF786088
:10B15000314BFB6004210120304B9847FB681B8B6F
:10B160009BB22022FF3213439AB2FB681A832C4B06
:10B17000984703001A0001235340DBB2002B01D093
:10B18000052345E07B681B781B021A00C0239B0047
:10B190001A407B685B78DB011900FF230B401A43E0
:10B1A0007B689B785B0019001E230B401A437B6869
:10B1B000DB789B0419008023DB020B401A437B6879
:10B1C0001B791B041900C0239B020B401A43FB6828
:10B1D0005A60FB689B685B035B0FDBB21A000823B5
:10B1E00093409AB20F4B1A80FB689B689AB20D4B42
:10B1F0005A807B685A780B4B1A71FB681B8B9BB289
:10B200001A0080235B00134001D0102300E00023CC
:10B210001800BD4604B080BD00400041EDB0000004
:10B22000C5B000008404002080B586B000AFB960CE
:10B230007A600F23FB18021C1A70344B1B881A000B
:10B24000324B5B885A43BB689A4201D2182358E0BC
:10B250002F4B7B617B695B683B613B698022D2023B
:10B260001A437B695A607B691B8B9BB22022FF3299
:10B2700013439AB27B691A83264B984703001A003E
:10B2800001235340DBB2002B01D0052339E00F230B
:10B29000FB181B78452B1AD89A001F4BD3181B6834
:10B2A0009F467B691B8B9BB21A0080235B00134077
:10B2B00001D0102325E0BB689B085A007B69DA6146
:10B2C00008E0BB689B085A007B69DA6102E017233B
:10B2D00017E0C0460F23FB181B789BB20F4A13439D
:10B2E0009AB27B691A80C0460A4B984703001A003D
:10B2F00001235340DBB2002BF6D17B693A695A60D7
:10B3000000231800BD4606B080BDC046840400205E
:10B3100000400041C5B000003C4D030000A5FFFF08
:10B3200080B588B000AFF860B960BB1D1A804C4B87
:10B330001B881A004A4B5B885A43FB689A4201D229
:10B34000182389E0464B1B88013B1A00FB68134019
:10B3500001D0182380E0424B1B88BA1D12889A4204
:10B3600001D9172378E03F4B7B613F4B984703009F
:10B370001A0001235340DBB2002B01D005236BE000
:10B380007B693A4A1A80C046374B984703001A0037
:10B3900001235340DBB2002BF6D17B691B8B9BB2A0
:10B3A0002022FF3213439AB27B691A83FB685B0841
:10B3B000FB611A23FB1800221A8032E01A23FB18C3
:10B3C0001B88BA68D3181A781823FB181A801A2316
:10B3D000FB181A88BB1D1B88013B9A4211DA1A23FD
:10B3E000FB181B880133BA68D3181B781B021AB2EA
:10B3F0001823FB1800215B5E13431AB21823FB18B5
:10B400001A80FB695A1CFA615B001A001823FB18AA
:10B410001B8813801A23FB181A22BA1812880232CA
:10B420001A801A23FA18BB1D12881B889A42C5D3AA
:10B430000B4B1B7901225340DBB2002B0BD0BB1D01
:10B440001B883F2B07D8FB68002219000420084BFB
:10B450009847030000E000231800BD4608B080BDF7
:10B460008404002000400041C5B0000044A5FFFF57
:10B4700029B2000080B588B000AFF860B960BB1D8C
:10B480001A803A4B1B881A00384B5B885A43FB687A
:10B490009A4201D2182365E0344B1B88013B1A0005
:10B4A000FB68134001D018235CE0304B1B88BA1DA9
:10B4B00012889A4201D9172354E02D4B7B612D4B02
:10B4C000984703001A0001235340DBB2002B01D040
:10B4D000052347E07B691B8B9BB22022FF3213437D
:10B4E0009AB27B691A83FB685B08FB611A23FB181D
:10B4F00000221A802EE0FB695A1CFA615B001A00D8
:10B500001223FB1812881A801A23FB181B88BA68AA
:10B51000D3181222BA181288D2B21A701A23FB1842
:10B520001A88BB1D1B88013B9A420CDA1A23FB18B0
:10B530001B880133BA68D3181222BA181288120A6B
:10B5400092B2D2B21A701A23FB181A22BA181288B1
:10B5500002321A801A23FA18BB1D12881B889A42DD
:10B56000C9D300231800BD4608B080BD8404002064
:10B5700000400041C5B0000080B584B000AF7860E5
:10B58000204B1B881A001F4B5B885A437B689A42EA
:10B5900001D2182332E01B4B1B889B00013B1A0091
:10B5A0007B68134001D0182328E0174BFB60174B32
:10B5B000984703001A0001235340DBB2002B01D04F
:10B5C00005231BE0FB681B8B9BB22022FF32134339
:10B5D0009AB2FB681A837B689B085A00FB68DA61A1
:10B5E000FB680B4A1A80C046084B984703001A00B4
:10B5F00001235340DBB2002BF6D100231800BD46D7
:10B6000004B080BD8404002000400041C5B00000AB
:10B6100002A5FFFF80B586B000AF78602C4B7B6140
:10B620007B691B8B9BB22022FF3213439AB27B694A
:10B630001A837B699B683B613B691B0C07221340A3
:10B6400008229A401300DAB27B681A703B699AB2FA
:10B650007B685A801F4B1B889BB21B099AB20E2332
:10B66000FB1807210A401A800E23FB181B88072BA2
:10B6700003D17B6800225A600AE00E23FB181B8866
:10B680000622D31A04229A4013001A007B685A60DB
:10B69000104B1B889AB20C23FB1807210A401A8012
:10B6A0000C23FB181B88072B03D17B6800229A60B0
:10B6B0000AE00C23FB181B880722D31A04229A40A5
:10B6C00013001A007B689A60C046BD4606B080BD74
:10B6D000004000410040800080B582B000AF78603B
:10B6E0007B6800221A70C046BD4602B080BD0000D3
:10B6F00080B582B000AF02003960FB1D1A70FB1DDF
:10B700001B78012B0AD0022B0FD0002B14D10E4B2B
:10B710000D4A91693A680A439A610FE00A4B0A4A56
:10B72000D1693A680A43DA6108E0074B064A116AB0
:10B730003A680A431A6201E0172300E00023180068
:10B74000BD4602B080BDC0460004004080B584B054
:10B7500000AF78607B681B68FB60FB689B7ADBB29C
:10B760005BB2002B01DA012300E000231800BD4684
:10B7700004B080BD80B584B000AF78607B681B6882
:10B78000FB60C0467B681800074B9847031EF9D141
:10B79000FB681B889BB2022213439AB2FB681A8093
:10B7A000C046BD4604B080BD4DB7000080B584B032
:10B7B00000AF78607B681B68FB60C0467B68180040
:10B7C000074B9847031EF9D1FB681B889BB20222E6
:10B7D00093439AB2FB681A80C046BD4604B080BD50
:10B7E0004DB7000080B584B000AF78607B681B68FF
:10B7F000FB607B6818000A4B9847C0467B681800BE
:10B80000084B9847031EF9D1FB681B889BB20122A5
:10B8100013439AB2FB681A80C046BD4604B080BD8F
:10B82000ADB700004DB7000080B584B000AF7860C0
:10B8300039603B68DB881A007B68DB88D31A9B067B
:10B84000FB603B685B799B051A00FB681343FB6058
:10B850003B681B795B041A00FB681343FB603B6881
:10B860009B781B031A00FB681343FB607B681B7902
:10B8700001225340DBB2002B08D03B68DB78002B61
:10B8800004D0FB68802252021343FB603B685B7864
:10B890009B011A00FB681343FB603B681B781A008E
:10B8A000FB681343FB60FB681800BD4604B080BD15
:10B8B00080B584B000AFF860B9607A60BB689B0E59
:10B8C0009AB2FB68DB88D3189AB27B68DA80BB68CF
:10B8D0009B0DDBB20F221340DAB27B685A71BB6852
:10B8E0005B0CDBB21F221340DAB27B681A71FB6873
:10B8F0001B79002B08D0BB681B0BDBB21F22134047
:10B90000DAB27B689A7010E0BB681B0BDBB20F22C7
:10B910001340DAB27B689A70BA6880235B021340E6
:10B920005A1E9341DAB27B68DA70BB689B09DBB2BE
:10B930003F221340DAB27B685A70BB68DBB23F2209
:10B940001340DAB27B681A70C046BD4604B080BDB1
:10B9500080B584B000AF786039607B681B68BB60DD
:10B960003B681A880E23FB1808210A431A803B689B
:10B970001B7901225340DBB2002B07D00E23FB18AA
:10B980000E22BA18128840210A431A803B689B781D
:10B99000002B07D00E23FB180E22BA181288802124
:10B9A0000A431A80BB680E22BA1812881A803B68B4
:10B9B000DB78002B08D0BB685B889BB28022D20169
:10B9C00013439AB2BB685A800D23FB1800221A70E9
:10B9D00017E00D23FB181A7813009B009B185B00DF
:10B9E00008333A68D1180D23FB181A787B681800C1
:10B9F000084B98470D23FB181A780D23FB180132CA
:10BA00001A700D23FB181B78002BE2D0C046BD46F0
:10BA100004B080BD05BB000080B586B000AFF86003
:10BA2000B9607A60FB68BA681A6020210020184B60
:10BA300098471423FB181800164B98471423FB183B
:10BA400002221A701423FB1819000420124B984785
:10BA50000420124B9847FB681800114B98477B68ED
:10BA60001A79FB681A717B68DA78FB685A717B680F
:10BA7000DA88FB68DA800B4BFA681A607A68FB6830
:10BA800011001800084B9847C046BD4606B080BD5F
:10BA9000F1B60000D9B6000081D10200C5D1020084
:10BAA000E5B700004842002051B9000080B584B0DD
:10BAB00000AF786039607B681B68FB607B685B79EE
:10BAC00001225340DBB2002B09D0FB680A4A5A809E
:10BAD000C0467B681800094B9847031EF9D1FB68E4
:10BAE0001B69BB603A68B9687B681800044B9847CB
:10BAF000C046BD4604B080BD0080FFFF4DB70000CA
:10BB0000B1B8000080B586B000AFF860B960FB1D29
:10BB10001A70FB681B687B61FB1D1B78012B01D928
:10BB2000172321E0BA68FB6811001800104B9847F2
:10BB300003003B61C046FB6818000E4B9847031E8C
:10BB4000F9D1FB1D1A787B690332D2003969D150D3
:10BB5000FB1D1B78BA68117A7A690333DB00D318AE
:10BB600004330A1C1A7000231800BD4606B080BDBD
:10BB700029B800004DB7000080B582B000AF7860F2
:10BB80007B6800221A70C046BD4602B080BD00002E
:10BB900080B582B000AF02003960FB1D1A70FB1D3A
:10BBA0001B78012B0AD0022B0FD0002B14D10E4B87
:10BBB0000D4A91693A680A439A610FE00A4B0A4AB2
:10BBC000D1693A680A43DA6108E0074B064A116A0C
:10BBD0003A680A431A6201E0172300E000231800C4
:10BBE000BD4602B080BDC0460004004080B582B0B2
:10BBF00000AF78607B6880221A707B6800225A70E0
:10BC00007B6801229A707B680022DA70C046BD46CC
:10BC100002B080BD80B584B000AF78600023FB60C7
:10BC20000CE00A4BFA689200D2587B689A4202D123
:10BC3000FB68DBB206E0FB680133FB60FB68022BAC
:10BC4000EFD900231800BD4604B080BD544E030058
:10BC500090B585B000AF786039600F23FC183B6861
:10BC60001800AD4B9847030023707B6800221A60D0
:10BC70000F23FB181A78A94B9200D2587B685A60A0
:10BC80007B6800229A727B680022DA727B6800224D
:10BC90001A737B6800225A727B6800221A727B68D2
:10BCA0000022DA617B6800221A627B6800225A62F5
:10BCB0007B6800229A627B6800221A757B680022EA
:10BCC0005A757B6800229A757B680022DA757B685A
:10BCD00000221A767B6800225A767B6800221A744A
:10BCE0007B6800225A747B6800229A747B68002269
:10BCF000DA747B682C22002199547B682D22002164
:10BD000099547B682E22002199547B682F220021B0
:10BD100099547B683022002199547B68312200219C
:10BD200099547B683222002199547B683322002188
:10BD300099547B683422002199547B683522002174
:10BD400099547B683622002199547B683722002160
:10BD500099547B683822002199547B68392200214C
:10BD600099547B683A22002199547B683B22002138
:10BD700099547B683C22002199547B683D22002124
:10BD800099547B683E22002199547B683F22002110
:10BD900099547B684022002199547B6841220021FC
:10BDA00099547B684222002199547B6843220021E8
:10BDB00099547B684422002199547B6845220021D4
:10BDC00099547B684622002199547B6847220021C0
:10BDD00099547B684822002199547B6849220021AC
:10BDE00099547B684A22002199547B684B22002198
:10BDF00099547B684C22002199547B684D22002184
:10BE000099547B684E22002199547B684F2200216F
:10BE100099547B685022002199547B68512200215B
:10BE200099547B685222002199547B685322002147
:10BE300099547B685422002199547B685522002133
:10BE400099547B685622002199547B68572200211F
:10BE500099547B689822002199547B6800229A6546
:10BE60007B6800229A677B689922002199547B683D
:10BE70000022DA657B680022DA677B689A2200215B
:10BE800099547B6800221A667B68802200219950B1
:10BE90007B689B22002199547B6800225A667B684C
:10BEA0008422002199507B689C22002199547B6850
:10BEB00000229A667B688822002199507B689D2227
:10BEC000002199547B680022DA667B688C2200216D
:10BED00099507B689E22002199547B6800221A6742
:10BEE0007B689022002199507B689F220021995401
:10BEF0007B6800225A677B689422002199507B68F6
:10BF0000A022012199547B68A12200219954C046A6
:10BF1000BD4605B090BDC04615BC0000704E030084
:10BF200080B586B000AFB9607A600F23FB18021CA1
:10BF30001A7000237B6100233B611DE0BA683B69F6
:10BF4000D31810331B78012B13D10F23FB181B7848
:10BF50001B4AD35C1A003B699A4201DA17232AE094
:10BF600080235A043B699A4013001A007B691343EB
:10BF70007B613B6901333B613B69032BDEDDBB68C1
:10BF8000A1229B5C002B04D07B6980221201134309
:10BF90007B61BB681B7B1B031A007B6913437B61BE
:10BFA000BB68DB7A1B021A007B6913437B617B68E9
:10BFB0007A691A6000231800BD4606B080BDC046ED
:10BFC0007C4E030080B586B000AFB9607A600F2365
:10BFD000FB18021C1A701723FB1800221A70BB688A
:10BFE0001B7A002B07D01723FB181722BA181278D8
:10BFF00004210A431A70BB685B7A012B07D117230F
:10C00000FB181722BA18127801210A431A707B68AC
:10C010001722BA1812781A70C046BD4606B080BD05
:10C0200080B588B000AFB9607A600F23FB18021C9E
:10C030001A700F23FB181A781B23FB183E498A5CE1
:10C040001A700023FB616EE0FA6913009B009B18D5
:10C050005B002833BA68D31804337B617B695B7A51
:10C060001B22BA1812789A4201D817235FE07B6925
:10C070001B780F2B01D9172359E07B691B781B060E
:10C080001A00F0231B051A407B695B781B0419001A
:10C09000FF231B040B401A437B699B78002B01D0C4
:10C0A000802300E000231A437B69DB78002B01D05A
:10C0B000082300E000231A437B691B79002B01D081
:10C0C000102300E000231A437B695B7919000323E6
:10C0D0000B401A437B699B795B01190060230B407D
:10C0E0001A437B69DB791B021900C0239B000B40BC
:10C0F0001A437B691B7A1B031900E023DB010B4009
:10C100001A437B695B7A9B021900C0231B010B4019
:10C1100013433B61FB699B007A68D3183A691A6044
:10C12000FB690133FB61FB69012B8DDD00231800E6
:10C13000BD4608B080BDC0467C4E030080B588B0C7
:10C1400000AFB9607A600F23FB18021C1A700F232E
:10C15000FB181A781723FB182D498A5C1A700023E4
:10C16000BB610023FB6148E0BA685021FB69D3182A
:10C170005B181B78002B10D01723FB181A78FB696B
:10C180009A4201D817233FE080235A02FB699A4064
:10C1900013001A00BB691343BB61BA68FB691C3307
:10C1A0005B00D31809331B78002B23D01723FB180F
:10C1B0001A78FB699A4201D8172325E0BA68FB690F
:10C1C0001C335B00D31809331B78022B0AD10223DE
:10C1D000FF331A00FB699A4013001A00BB6913432E
:10C1E000BB6107E00122FB699A4013001A00BB699A
:10C1F0001343BB61FB690133FB61FB69072BB3D9B7
:10C200007B68BA691A6000231800BD4608B080BD7B
:10C21000804E030080B588B000AFB9607A600F230C
:10C22000FB18021C1A700F23FB181A781723FB182F
:10C230001D498A5C1A70BB6810333B613B695B7AAD
:10C240001B011A0030231A403B691B7A190007238F
:10C250000B401343BB610023FB611AE03A69FB69A1
:10C26000D31804331B78002B10D01723FB181A782F
:10C27000FB699A4201DC172312E080235A02FB6912
:10C280009A4013001A00BB691343BB61FB69013379
:10C29000FB61FB69032BE1DD7B68BA691A6000234F
:10C2A0001800BD4608B080BD7C4E030090B591B02B
:10C2B00000AFF860B9607A603B23FC18BB681800D7
:10C2C000C44B9847030023703B23FB181A78C24BDA
:10C2D0009200D35819000220C04B9847BB681B68D6
:10C2E0000222134001D01C23BEE1BB681B6801225F
:10C2F000134001D01C23B7E13B23FB181A78B84B3D
:10C300009200D3587B637B681A687B6B9A4204D88F
:10C310007B685A687B6B9A4201D91723A4E10023FA
:10C32000FB630EE07A68FB6B06339B00D318043383
:10C330001A687B6B9A4201D9172395E1FB6B013395
:10C34000FB63FB6B032BEDDD0023FB6319E07A68D5
:10C350009821FB6BD3185B181B7801225340DBB28A
:10C36000002B0AD13B23FB181B789E4AD35C1A0092
:10C37000FB6B9A4202DC172376E1C046FB6B01336C
:10C38000FB63FB6B072BE2DD0023FB623323FC180E
:10C390002C23FA1879683B23FB181B781800924B62
:10C3A0009847030023703323FB181B78002B03D01E
:10C3B0003323FB181B7857E12B23FA1879683B23AA
:10C3C000FB181B781800894B98473323FC1820234F
:10C3D000FA1879683B23FB181B781800844B9847A0
:10C3E000030023703323FB181B78002B03D0332367
:10C3F000FB181B7838E10023FB613323FC181C2356
:10C40000FA1879683B23FB181B781800794B98477A
:10C41000030023703323FB181B78002B03D0332336
:10C42000FB181B7820E13323FC181823FA187968CD
:10C430003B23FB181B7818006F4B984703002370B1
:10C440003323FB181B78002B03D03323FB181B78F6
:10C450000AE10023FB6309E0FA68FB6B9B00D31839
:10C46000043300221A60FB6B0133FB63FB6B0B2B65
:10C47000F2DDFB6800225A63FB6800229A633B23CB
:10C48000FB181A785D4B9200F968D150FB68BA68C6
:10C490001A607B68A022995CFB683C2299541423A3
:10C4A000FB181800564B98477B689A7A1423FB18A0
:10C4B0001A703B23FB181B78524AD35C1422BA181B
:10C4C00011001800504B98473B23FB181B784D4A2E
:10C4D000D35C18004D4B98470023FB632DE07A682E
:10C4E0009821FB6BD3185B181B7801225340DBB2F9
:10C4F000002B1ED11023FB181800454B98477B6872
:10C50000FA6B1E329200D358DAB21023FB181A705D
:10C510001023FB1801225A707B68FA6B16329200C6
:10C52000D358DBB21022BA1811001800394B9847C3
:10C5300000E0C046FB6B0133FB633B23FB181B7819
:10C54000284AD35C1A00FB6B9A42C8DCFA6ABB68C3
:10C550001A60C046BB689B6804221340FAD1BB68CE
:10C56000FF221A71C046BB689B6804221340FAD1AF
:10C570002B23FB181A78BB685A712023FB181A6802
:10C58000BB68DA602023FB185A68BB681A61FA6935
:10C59000BB689A61C046BB689B681F4A1340FAD1CA
:10C5A000BA69BB68DA63C046BB689B681022134057
:10C5B000FAD17B681A68BB685A63C046BB689B683F
:10C5C000164A1340FAD17B685A68BB681A64002384
:10C5D000FB633FE015BC0000644E030091BB00000C
:10C5E000704E0300804E030021BF0000C5BF000055
:10C5F00021C000003DC1000015C200004C420020D7
:10C6000079BB0000604E030081D10200C5D1020059
:10C61000EDBB0000B5D40200400002008000040021
:10C62000C046BB689B681249FA6B91400A001340F0
:10C63000F7D17A68FB6B06339B00D31804331A6872
:10C64000B968FB6B10339B00CB1804331A60FB6B8B
:10C650000133FB633B23FB181B78064AD35C1A00AB
:10C66000FB6B9A42DCDC00231800BD4611B090BD84
:10C67000000108007C4E030080B500AF0020024B93
:10C680009847C046BD4680BDB5C6000080B500AF26
:10C690000120024B9847C046BD4680BDB5C600008C
:10C6A00080B500AF0220024B9847C046BD4680BD12
:10C6B000B5C6000080B586B000AF0200FB1D1A7041
:10C6C000FB1D1A78184B9200D3583B613B691B68DD
:10C6D000DA6A3B695B6B1A403B699B6B1340FB60FA
:10C6E00000237B6119E0114B7A699200D358FA68F4
:10C6F00013400FD03A697B699B00D31804331B6841
:10C700003A69100098473B691B68084A79698900B3
:10C710008A58DA627B6901337B617B690B2BE2DD2E
:10C72000C046BD4606B080BD4C420020844E03008A
:10C7300080B582B000AF02003960FB1D1A70FB1D8E
:10C740001B78012B0AD0022B0FD0002B14D10E4BDB
:10C750000D4A91693A680A439A610FE00A4B0A4A06
:10C76000D1693A680A43DA6108E0074B064A116A60
:10C770003A680A431A6201E0172300E00023180018
:10C78000BD4602B080BDC0460004004080B582B006
:10C7900000AF074B7B607B68DB79DBB25BB2002BC1
:10C7A00001DA012300E000231800BD4602B080BD7D
:10C7B0000010004080B582B000AF074B7B607B6803
:10C7C0001B78DBB21A00802313405A1E9341DBB260
:10C7D0001800BD4602B080BD0010004080B586B094
:10C7E00000AF7860544B3B6110210020534B9847B9
:10C7F000534B9847031E01D0102398E07B68DB78E9
:10C80000002B01D1172392E07B68DA787B681B79D3
:10C810009A4205D37B68DA787B685B799A4201D2C9
:10C82000172384E03B691B78DBB202229343DAB220
:10C830003B691A70C046434B9847031EFBD17B6887
:10C840005B7801225340DBB2002B01D000236EE065
:10C850007B689A780C23FB181A700C23FB181900BC
:10C860000320394B98470320384B98477B681B7847
:10C87000002B02D00320364B984700237B617B6856
:10C88000DB78013B1A007B6913437B617B681B7972
:10C89000002B10D03B691B78DBB204221343DAB2C1
:10C8A0003B691A707B681B79013B1B011A007B698D
:10C8B00013437B6107E03B691B78DBB2042293439F
:10C8C000DAB23B691A70C0461E4B9847031EFBD173
:10C8D0007B69DAB23B695A707B685B79002B0AD0BE
:10C8E000C046184B9847031EFBD17B685B79013B20
:10C8F000DAB23B699A707B681B78002B09D03B69E0
:10C900001B78DBB2802252421343DAB23B691A70C1
:10C9100007E03B691B78DBB202221343DAB23B69C2
:10C920001A70C046074B9847031EFBD1002318001E
:10C93000BD4606B080BDC0460010004031C70000B3
:10C94000B5C700008DC7000081D10200C5D102002B
:10C95000A5D2020080B582B000AF074B7B607B6838
:10C96000A5221A72C046054B9847031EFBD1C0464C
:10C97000BD4602B080BDC046001000408DC700001B
:10C9800080B582B000AF044B7B607B6801229A7156
:10C99000C046BD4602B080BD0010004080B582B0E8
:10C9A00000AF0200FB1D1A70064BFA1D1278110031
:10C9B0001F220A40012191400A001A60C046BD466C
:10C9C00002B080BD00E100E080B582B000AF7860C9
:10C9D0000A00FB1C1A70FB1C1B78002B04D1054BB2
:10C9E0007A681A60002300E017231800BD4602B0E1
:10C9F00080BDC0465842002080B584B000AF020020
:10CA0000FB1D1A70094BFB60FB1D1B78002B07D127
:10CA1000FB6801225A710220054B9847002300E071
:10CA200017231800BD4604B080BDC046001000406A
:10CA30009DC9000080B500AF054B9847054B1B68AA
:10CA4000002B02D0034B1B689847C046BD4680BDF3
:10CA500081C900005842002080B582B000AF7860E4
:10CA60007B6800221A707B6801225A70084B5B6851
:10CA7000DB061B0FDBB21A007B689A707B68002212
:10CA8000DA707B6800221A71C046BD4602B080BDD4
:10CA90000040004190B585B000AF0200FB1D1A7048
:10CAA0000F23FB1800221A700A4B5B68FA1D1278DC
:10CAB00012029B180F22BC181800074B984703005E
:10CAC00023700F23FB181B78052BEDD0C046BD4605
:10CAD00005B090BD8C04002079B5000090B585B0FC
:10CAE00000AF02003960BB1D1A800F23FB18002223
:10CAF0001A700C4B5A68BB1D1B889B01D318180079
:10CB00000F23FC183B6840221900074B984703008D
:10CB100023700F23FB181B78052BEAD0C046BD46B7
:10CB200005B090BD8C04002021B3000090B585B005
:10CB300000AF0200BB1D1A800F23FB1800221A70E1
:10CB40000B4B5A68BB1D1B889B01D3180F22BC18C6
:10CB5000002219000420074B9847030023700F237D
:10CB6000FB181B78052BEBD0C046BD4605B090BD29
:10CB70008C04002029B2000090B585B000AF0200FF
:10CB80003960BB1D1A800F23FB1800221A700C4B52
:10CB90005A68BB1D1B889B01D31818000F23FC1873
:10CBA0003B6840221900074B9847030023700F236E
:10CBB000FB181B78052BEAD0C046BD4605B090BDDA
:10CBC0008C04002075B4000080B592B000AF4623FD
:10CBD000FB1800221A80324B872200219954304BD7
:10CBE00087229B5C18002F4B98474423FB18042294
:10CBF0001A804AE04423FB181A88294B1B89013B01
:10CC00009A423AD04423FB181B88032213409BB25C
:10CC1000002B08D14423FB181B889B089BB2DBB276
:10CC20001800204B98474423FB181B88032213400D
:10CC30009BB2012B22D83B1D4022FF2118001A4B2A
:10CC400098474623FB181B88DAB23B1D1A703A1D21
:10CC50004423FB181B8811001800144B98474423E9
:10CC6000FB181B881800124B98474623FB181A889C
:10CC70004623FB1801321A8000E0C0464423FB180B
:10CC80001A884423FB1801321A80054B1B89442261
:10CC9000BA1812889A42ADD3C046BD4612B080BDC4
:10CCA0008C04002095CA00005B230300DDCA00004D
:10CCB0002DCB000080B584B000AF0E23FB180022FE
:10CCC0001A8033E00E23FB181A884C4B1B89013B5A
:10CCD0009A4223D0494B5A680E23FB181B889B01AC
:10CCE000D3181A780823FB181A800823FB181B880E
:10CCF000FF2B14D0414B9B7A9BB20822BA181288A2
:10CD00009A420CD20823FB181B880E22BA181288EC
:10CD1000D1B23A4AD3180A1CDA7200E0C0460E2398
:10CD2000FB181A880E23FB1801321A80334B1B891B
:10CD30000E22BA1812889A42C4D3304B87223F2160
:10CD400099540C23FB1800221A804AE00B23FB188D
:10CD500001221A700A23FB1800221A7028E00C2303
:10CD6000FB181B889B0099B20A23FB181B789AB208
:10CD7000BB1D8A181A80BB1D1A88204B1B89013BDA
:10CD80009A420DD01D4B5A68BB1D1B889B01D318BE
:10CD90001B78FF2B05D00B23FB1800221A7000E034
:10CDA000C0460A23FB181A780A23FB1801321A70AE
:10CDB0000A23FB181B78032BD1D90B23FB181B78F4
:10CDC000002B07D00C23FB181B88D9B20B4B8722F2
:10CDD00099540FE00C23FB181A880C23FB1801321E
:10CDE0001A80064B1B899B089BB20C22BA1812882A
:10CDF0009A42ABD3C046BD4604B080BD8C0400202F
:10CE000080B584B000AF02003960FB1D1A700E239C
:10CE1000FB18FA1D127892081A700D23FB18FA1DE0
:10CE2000127803210A401A700F23FB180D22BA183A
:10CE300012781A7023E00E23FB181B789B00D9B2DE
:10CE40000C23FB180F22BA1812788A181A70114B8B
:10CE50005A680C23FB181B789B01D3181B78FF2BF7
:10CE600006D13B680C22BA1812781A7001230CE024
:10CE70000F23FB181A780F23FB1801321A700F23A7
:10CE8000FB181B78032BD6D900231800BD4604B02D
:10CE900080BDC0468C04002080B586B000AF3A60EB
:10CEA000FB1D021C1A70BB1D0A1C1A701423FB18F0
:10CEB00000221A70694B5B68FA1D127812029B18E7
:10CEC0003B613B691A780823FB181A70FB1D1B781D
:10CED0009B00DAB20823FB185A703B6940331A787A
:10CEE0000823FB189A70FB1D1B789B00DBB20133F3
:10CEF000DAB20823FB18DA701723FB1800221A7025
:10CF00003AE01623FB1802221A7029E01723FB18B7
:10CF10001A780823FB185200D25C1623FB181B78E2
:10CF20009B013969CB181B789A4212D11723FB1841
:10CF30001B78FA1D12789200D1B21622BA18127814
:10CF40008A18D1B20822BA185B00D31801330A1C20
:10CF50001A701623FB181A781623FB1801321A7060
:10CF60001623FB181B78032BD0D91723FB181A782C
:10CF70001723FB1801321A701723FB181B78012B9B
:10CF8000BFD91523FB1800221A7051E0334B8722BA
:10CF90009B5C9A001523FB181B78D318FB60304B61
:10CFA00098471523FB181A780823FB185200D35C06
:10CFB000BA1D12789A420DD1284BBA1D88211278D9
:10CFC0005A54264B8C2239689B183C221800254B5A
:10CFD00098470EE01523FB181B780822BA185B004F
:10CFE000D31801331B789BB21F4A110018001F4B46
:10CFF0009847FB689BB21C4A110018001C4B9847CD
:10D000001523FB181A780823FB185200D35C19006B
:10D01000FB68DAB2114B5B18DA72104BC82201219F
:10D0200099541523FB181A781523FB1801321A702E
:10D030001523FB181B78012BA8D9FB1D1B781800A2
:10D040000C4B9847054BFA1D872112785A5414232C
:10D05000FB181B781800BD4606B080BD8C0400206C
:10D060001DD80000252303001405002079CB000003
:10D07000DDCA000095CA000090B595B000AF40230E
:10D08000FB18294A13CA13C33B004022FF21180092
:10D09000264B98474F23FB1800221A7013E04F23AA
:10D0A000FB181A784F23FB1819784023FB188900C6
:10D0B000C9583B009200D1504F23FB181A784F23D8
:10D0C000FB1801321A704F23FB181B78022BE6D98C
:10D0D0003B000122DA733B0001221A733B0000225D
:10D0E0005A733B0000229A73114B1B89013B002BA2
:10D0F00000DA03339B10DBB218000E4B98470C4B41
:10D100001B89013B9BB23A00110018000A4B98475B
:10D11000074B1B89013B9BB21800084B9847C04640
:10D12000BD4615B090BDC046B44E03005B2303005E
:10D130008C04002095CA0000DDCA00002DCB000041
:10D1400090B595B000AF4023FB18224A13CA13C311
:10D15000214B1B89013B9BB23A00110018001F4B69
:10D1600098474F23FB1800221A7017E04F23FB1833
:10D170001A783B009200D2584F23FB1819784023AD
:10D18000FB188900CB589A4201D01A231EE04F2386
:10D19000FB181A784F23FB1801321A704F23FB1823
:10D1A0001B78022BE2D93B00DB7B012B01D0102343
:10D1B0000CE03B001B7B012B01D0102306E03B0061
:10D1C0005B7B002B01D0102300E000231800BD463C
:10D1D00015B090BDB44E03008C04002079CB000044
:10D1E00080B582B000AF78600A4B1B7801225340B3
:10D1F000DBB2002B01D01F2308E07B683C221A70B1
:10D20000044B9B7A9AB27B685A8000231800BD4673
:10D2100002B080BD8C04002090B587B000AF17230A
:10D22000FB1800221A701023FB1818002E4B984789
:10D230001023FB1801225A701723FC181023FB1827
:10D2400018002A4B9847030023701723FB181B78FC
:10D25000052BF1D03B1D1800254B98473B1D5B6803
:10D260000B2B01D816233BE03B1D5B689AB2214B88
:10D270001A813B1D5B68083B5B08DAB21D4B9A7252
:10D280001C4B1B891A0013009B069B1A9B018022D2
:10D29000D202944663441A00164B5A60154BC822BA
:10D2A00000219954144B9847124B87229B5C3F2BCB
:10D2B00001D11A2314E01723FC18104B98470300E0
:10D2C00023701723FB181B78002B03D01723FB18A0
:10D2D0001B7805E0074B01221A701723FB181B78F7
:10D2E0001800BD4607B090BD59CA000049B1000002
:10D2F00015B600008C040020B5CC000041D1000020
:10D3000080B500AF044B9847044B9847044B9847AF
:10D31000C046BD4680BDC046C9CB000079D00000E4
:10D32000B5CC000090B585B000AF02003960FB1DA0
:10D330001A70384B1B7801225340DBB2002B01D00E
:10D340001F2363E0334B9B7AFA1D12789A4201D374
:10D3500018235BE02F4BC8229B5C002B08D02D4B81
:10D3600088229B5CFA1D12789A4201D02A4B98477A
:10D370000E23FB1800221A70FB1D1B78254AD318B8
:10D38000DB7A0F22BC180E22BA1811001800234BAA
:10D390009847030023700F23FB181B78012253408A
:10D3A000DBB2002B0ED0FB1D1B781A4AD318DB7A98
:10D3B0009B08D8B23A68FB1D1B781900184B984798
:10D3C000002323E0134BFA1D882112785A54114B85
:10D3D0008C2239689B183C221800124B98470E2368
:10D3E000FB181B789BB2104A110018000F4B98478E
:10D3F000FB1D1B780E22BA181178064AD3180A1C96
:10D40000DA72044BC8220121995400231800BD464A
:10D4100005B090BD8C0400201DD8000001CE000096
:10D4200099CE00002523030014050020DDCA00006A
:10D4300080B592B000AF02003960FB1D1A70204B1E
:10D440001B7801225340DBB2002B01D01F2333E0B5
:10D450001B4B9B7AFA1D12789A4201D318232BE0BA
:10D46000174BC8229B5C002B10D0154B88229B5C6D
:10D47000FA1D12789A4209D13968114B8C220800A2
:10D480009B183C2219000F4B984714E0FB1D1B789A
:10D490000B4AD318DB7A9BB20822BA181100180085
:10D4A000094B98473A680823FB18100004333C22C4
:10D4B0001900044B984700231800BD4612B080BDE8
:10D4C0008C0400202523030079CB000090B595B093
:10D4D00000AF39601100BB1D021C1A803B1D0A1CE5
:10D4E0001A804F23FB1800221A70BB1D1A88744B38
:10D4F0003C211000984703009AB24E23FB181A7083
:10D500004C23FB18BA1D12881A804B23FB180022EB
:10D510001A70BB1D1A886B4B3C21100098470B00FA
:10D520009BB2002B03D13B1D1B883B2B15D84F23EF
:10D53000FC180C23FA184E23FB181B781100180056
:10D54000614B9847030023704F23FB181B78002B77
:10D5500003D04F23FB181B78AEE0BB1D1A88594B34
:10D560003C21100098470B009BB2002B00D082E0BA
:10D570004C23FB181A88534B3C21100098470B0092
:10D580009BB219004C23FB181A88BB1D1B88D31AA9
:10D590001A003B689B181A780C23FB185A544B232B
:10D5A000FB1801221A704C23FB184C22BA1812885F
:10D5B00001321A805FE04C23FB181A88414B3C2152
:10D5C000100098470B009BB2002B32D14F23FC1860
:10D5D0000C23FA184E23FB181B78110018003B4B44
:10D5E0009847030023704B23FB1800221A704F2327
:10D5F000FB181B78002B49D14E23FB181A784E23B9
:10D60000FB1801321A704F23FC180C23FA184E2312
:10D61000FB181B78110018002B4B98470300237050
:10D620004F23FB181B78002B03D04F23FB181B78CC
:10D6300042E04C23FB181A88224B3C2110009847EB
:10D640000B009BB219004C23FB181A88BB1D1B88CA
:10D65000D31A1A003B689B181A780C23FB185A54EB
:10D660004B23FB1801221A704C23FB181A884C23F9
:10D67000FB1801321A804C23FB181A883B1D1988AD
:10D68000BB1D1B88CB189A4295DB00E0C0464B239C
:10D69000FB181B78002B0CD04F23FC180C23FA1816
:10D6A0004E23FB181B7811001800084B9847030005
:10D6B00023704F23FB181B781800BD4615B090BD92
:10D6C000C5020300D103030031D4000025D30000BC
:10D6D00090B593B000AF39601100BB1D021C1A80D9
:10D6E0003B1D0A1C1A80BB1D1A88494B3C211000A7
:10D6F000984703009AB24623FB181A704423FB187C
:10D70000BA1D12881A804723FC180823FA184623EA
:10D71000FB181B78110018003E4B9847030023703C
:10D720004723FB181B78002B03D04723FB181B78DB
:10D7300069E0BB1D1A88384B3C21100098470B004C
:10D740009BB2002B52D10823FB181A783B681A7041
:10D750004423FB184422BA18128801321A8045E08B
:10D760004423FB181A882C4B3C21100098470B00CF
:10D770009BB2002B1CD14623FB181A784623FB18BA
:10D7800001321A704723FC180823FA184623FB18A5
:10D790001B78110018001F4B984703002370472384
:10D7A000FB181B78002B03D04723FB181B782AE0BB
:10D7B0004423FB181A88BB1D1B88D31A1A003B6828
:10D7C0009C184423FB181A88134B3C2110009847DF
:10D7D0000B009BB21A000823FB189B5C23704423A8
:10D7E000FB181A884423FB1801321A804423FB18C3
:10D7F0001A883B1D1988BB1D1B88CB189A42AFDBCA
:10D800004723FB181B781800BD4613B090BDC046D7
:10D81000C502030031D40000D103030080B582B0FB
:10D8200000AFFB1D00221A70104BC8229B5C012226
:10D830005340DBB2002B01D0002313E0BB1D0B4A89
:10D840008821525C1A70BB1D1B78084AD318DB7AFA
:10D850009BB21800064B9847044BC82200219954EC
:10D86000FB1D1B781800BD4602B080BD8C04002053
:10D870002DCB000080B582B000AF78607B680022BD
:10D880001A707B6800225A707B6800229A707B684D
:10D890000022DA707B6801221A717B6801225A71BA
:10D8A0007B68FA22D200DA80C046BD4602B080BD55
:10D8B00080B586B000AF78600C23FB181800234BAE
:10D8C00098477B68A02212011A807B6800229A7018
:10D8D0007B680022DA707B6800221A717B68FA226A
:10D8E000D200DA801723FB1800221A7025E01723D4
:10D8F000FB181A787968082013009B009B185B00BE
:10D90000CB181A180C23FB181000190008231A0052
:10D910000F4B98471723FB181A78796813009B0060
:10D920009B185B00CB18103306221A701723FB18C4
:10D930001A781723FB1801321A701723FB181B786B
:10D94000002BD4D0C046BD4606B080BD75D80000BF
:10D950002523030080B588B000AF0C23FB18180006
:10D960001A4B98473B1D1800194B98473B1D194A05
:10D97000DA803B1D01225A713B1D01221A713B1DA9
:10D9800000229A703B1D00225A703B1D04221A701F
:10D990000C23FB1801221A710C23FB183A1D0833C3
:10D9A00003CA03C30C23FB1806221A740C23FA18AB
:10D9B00009490A4B18000A4B9847084B1800094BB5
:10D9C0009847C046BD4608B080BDC046B1D80000EB
:10D9D00075D80000DE070000001400405C42002003
:10D9E00019BA000075B7000090B585B000AF02000D
:10D9F000FB1D1A701A4B9847FB1D1B78012B01D990
:10DA0000012329E00023FB6010E00B23FC18FB1D21
:10DA10001B781800134B9847030023700B23FB1847
:10DA20001B78032B06D1FB680133FB60FB68012BDD
:10DA3000EBDD00E0C0460B23FB181B78002B01D068
:10DA4000012309E0FB1D1B781800074B9847031EB4
:10DA500001D0042300E000231800BD4605B090BDAE
:10DA600055D900001DAF0000D5AF000080B582B0D1
:10DA700000AF0200FB1D1A70FB1D1B781800084B3D
:10DA80009847031E02D0022B02D003E0002302E0DD
:10DA9000032300E001231800BD4602B080BDC0464C
:10DAA0001DAF000090B589B000AFB9607A60190071
:10DAB0000F23FB18021C1A700E23FB180A1C1A7085
:10DAC0001B23FC180F23FB181B781800284B9847C2
:10DAD000030023701B23FB181B78002B01D10123AB
